{
  "contractName": "DStorage",
  "abi": [
    {
      "inputs": [],
      "payable": false,
      "stateMutability": "nonpayable",
      "type": "constructor"
    },
    {
      "anonymous": false,
      "inputs": [
        {
          "indexed": false,
          "internalType": "uint256",
          "name": "timestamp",
          "type": "uint256"
        },
        {
          "indexed": false,
          "internalType": "address",
          "name": "user",
          "type": "address"
        },
        {
          "indexed": false,
          "internalType": "string",
          "name": "userRole",
          "type": "string"
        },
        {
          "indexed": false,
          "internalType": "string",
          "name": "action",
          "type": "string"
        },
        {
          "indexed": false,
          "internalType": "string",
          "name": "fileName",
          "type": "string"
        },
        {
          "indexed": false,
          "internalType": "string",
          "name": "fileHash",
          "type": "string"
        }
      ],
      "name": "ActionLogged",
      "type": "event"
    },
    {
      "anonymous": false,
      "inputs": [
        {
          "indexed": false,
          "internalType": "uint256",
          "name": "fileId",
          "type": "uint256"
        },
        {
          "indexed": false,
          "internalType": "string",
          "name": "fileName",
          "type": "string"
        },
        {
          "indexed": false,
          "internalType": "address",
          "name": "deletedBy",
          "type": "address"
        }
      ],
      "name": "FileDeleted",
      "type": "event"
    },
    {
      "anonymous": false,
      "inputs": [
        {
          "indexed": false,
          "internalType": "uint256",
          "name": "fileId",
          "type": "uint256"
        },
        {
          "indexed": false,
          "internalType": "string",
          "name": "fileHash",
          "type": "string"
        },
        {
          "indexed": false,
          "internalType": "uint256",
          "name": "fileSize",
          "type": "uint256"
        },
        {
          "indexed": false,
          "internalType": "string",
          "name": "fileType",
          "type": "string"
        },
        {
          "indexed": false,
          "internalType": "string",
          "name": "fileName",
          "type": "string"
        },
        {
          "indexed": false,
          "internalType": "string",
          "name": "fileDescription",
          "type": "string"
        },
        {
          "indexed": false,
          "internalType": "uint256",
          "name": "uploadTime",
          "type": "uint256"
        },
        {
          "indexed": false,
          "internalType": "address payable",
          "name": "uploader",
          "type": "address"
        }
      ],
      "name": "FileUploaded",
      "type": "event"
    },
    {
      "anonymous": false,
      "inputs": [
        {
          "indexed": false,
          "internalType": "uint256",
          "name": "fileId",
          "type": "uint256"
        },
        {
          "indexed": false,
          "internalType": "string",
          "name": "fileName",
          "type": "string"
        },
        {
          "indexed": false,
          "internalType": "address",
          "name": "viewedBy",
          "type": "address"
        }
      ],
      "name": "FileViewed",
      "type": "event"
    },
    {
      "anonymous": false,
      "inputs": [
        {
          "indexed": true,
          "internalType": "address",
          "name": "user",
          "type": "address"
        },
        {
          "indexed": false,
          "internalType": "string",
          "name": "role",
          "type": "string"
        }
      ],
      "name": "RoleAssigned",
      "type": "event"
    },
    {
      "constant": true,
      "inputs": [
        {
          "internalType": "uint256",
          "name": "",
          "type": "uint256"
        }
      ],
      "name": "auditLogs",
      "outputs": [
        {
          "internalType": "uint256",
          "name": "timestamp",
          "type": "uint256"
        },
        {
          "internalType": "address",
          "name": "user",
          "type": "address"
        },
        {
          "internalType": "string",
          "name": "userRole",
          "type": "string"
        },
        {
          "internalType": "string",
          "name": "action",
          "type": "string"
        },
        {
          "internalType": "string",
          "name": "fileName",
          "type": "string"
        },
        {
          "internalType": "string",
          "name": "fileHash",
          "type": "string"
        }
      ],
      "payable": false,
      "stateMutability": "view",
      "type": "function"
    },
    {
      "constant": true,
      "inputs": [],
      "name": "fileCount",
      "outputs": [
        {
          "internalType": "uint256",
          "name": "",
          "type": "uint256"
        }
      ],
      "payable": false,
      "stateMutability": "view",
      "type": "function"
    },
    {
      "constant": true,
      "inputs": [
        {
          "internalType": "uint256",
          "name": "",
          "type": "uint256"
        }
      ],
      "name": "fileIntegrityHashes",
      "outputs": [
        {
          "internalType": "bytes32",
          "name": "",
          "type": "bytes32"
        }
      ],
      "payable": false,
      "stateMutability": "view",
      "type": "function"
    },
    {
      "constant": true,
      "inputs": [
        {
          "internalType": "uint256",
          "name": "",
          "type": "uint256"
        }
      ],
      "name": "files",
      "outputs": [
        {
          "internalType": "uint256",
          "name": "fileId",
          "type": "uint256"
        },
        {
          "internalType": "string",
          "name": "fileHash",
          "type": "string"
        },
        {
          "internalType": "uint256",
          "name": "fileSize",
          "type": "uint256"
        },
        {
          "internalType": "string",
          "name": "fileType",
          "type": "string"
        },
        {
          "internalType": "string",
          "name": "fileName",
          "type": "string"
        },
        {
          "internalType": "string",
          "name": "fileDescription",
          "type": "string"
        },
        {
          "internalType": "uint256",
          "name": "uploadTime",
          "type": "uint256"
        },
        {
          "internalType": "address payable",
          "name": "uploader",
          "type": "address"
        }
      ],
      "payable": false,
      "stateMutability": "view",
      "type": "function"
    },
    {
      "constant": true,
      "inputs": [],
      "name": "name",
      "outputs": [
        {
          "internalType": "string",
          "name": "",
          "type": "string"
        }
      ],
      "payable": false,
      "stateMutability": "view",
      "type": "function"
    },
    {
      "constant": true,
      "inputs": [
        {
          "internalType": "address",
          "name": "",
          "type": "address"
        }
      ],
      "name": "roles",
      "outputs": [
        {
          "internalType": "string",
          "name": "",
          "type": "string"
        }
      ],
      "payable": false,
      "stateMutability": "view",
      "type": "function"
    },
    {
      "constant": false,
      "inputs": [
        {
          "internalType": "address",
          "name": "_user",
          "type": "address"
        },
        {
          "internalType": "string",
          "name": "_role",
          "type": "string"
        }
      ],
      "name": "setRole",
      "outputs": [],
      "payable": false,
      "stateMutability": "nonpayable",
      "type": "function"
    },
    {
      "constant": true,
      "inputs": [
        {
          "internalType": "address",
          "name": "_user",
          "type": "address"
        }
      ],
      "name": "getRole",
      "outputs": [
        {
          "internalType": "string",
          "name": "",
          "type": "string"
        }
      ],
      "payable": false,
      "stateMutability": "view",
      "type": "function"
    },
    {
      "constant": false,
      "inputs": [
        {
          "internalType": "string",
          "name": "_fileHash",
          "type": "string"
        },
        {
          "internalType": "uint256",
          "name": "_fileSize",
          "type": "uint256"
        },
        {
          "internalType": "string",
          "name": "_fileType",
          "type": "string"
        },
        {
          "internalType": "string",
          "name": "_fileName",
          "type": "string"
        },
        {
          "internalType": "string",
          "name": "_fileDescription",
          "type": "string"
        },
        {
          "internalType": "bytes32",
          "name": "_integrityHash",
          "type": "bytes32"
        }
      ],
      "name": "uploadFile",
      "outputs": [],
      "payable": false,
      "stateMutability": "nonpayable",
      "type": "function"
    },
    {
      "constant": false,
      "inputs": [
        {
          "internalType": "uint256",
          "name": "_fileId",
          "type": "uint256"
        }
      ],
      "name": "viewFile",
      "outputs": [],
      "payable": false,
      "stateMutability": "nonpayable",
      "type": "function"
    },
    {
      "constant": false,
      "inputs": [
        {
          "internalType": "uint256",
          "name": "_fileId",
          "type": "uint256"
        }
      ],
      "name": "recordDownload",
      "outputs": [],
      "payable": false,
      "stateMutability": "nonpayable",
      "type": "function"
    },
    {
      "constant": true,
      "inputs": [
        {
          "internalType": "uint256",
          "name": "_fileId",
          "type": "uint256"
        }
      ],
      "name": "getFileIntegrityHash",
      "outputs": [
        {
          "internalType": "bytes32",
          "name": "",
          "type": "bytes32"
        }
      ],
      "payable": false,
      "stateMutability": "view",
      "type": "function"
    },
    {
      "constant": true,
      "inputs": [
        {
          "internalType": "uint256",
          "name": "_fileId",
          "type": "uint256"
        },
        {
          "internalType": "bytes32",
          "name": "_computedHash",
          "type": "bytes32"
        }
      ],
      "name": "verifyFileIntegrity",
      "outputs": [
        {
          "internalType": "bool",
          "name": "",
          "type": "bool"
        }
      ],
      "payable": false,
      "stateMutability": "view",
      "type": "function"
    },
    {
      "constant": false,
      "inputs": [
        {
          "internalType": "uint256",
          "name": "_fileId",
          "type": "uint256"
        }
      ],
      "name": "deleteFile",
      "outputs": [],
      "payable": false,
      "stateMutability": "nonpayable",
      "type": "function"
    },
    {
      "constant": true,
      "inputs": [],
      "name": "getAuditLogs",
      "outputs": [
        {
          "internalType": "uint256[]",
          "name": "",
          "type": "uint256[]"
        },
        {
          "internalType": "address[]",
          "name": "",
          "type": "address[]"
        },
        {
          "internalType": "string[]",
          "name": "",
          "type": "string[]"
        },
        {
          "internalType": "string[]",
          "name": "",
          "type": "string[]"
        },
        {
          "internalType": "string[]",
          "name": "",
          "type": "string[]"
        },
        {
          "internalType": "string[]",
          "name": "",
          "type": "string[]"
        }
      ],
      "payable": false,
      "stateMutability": "view",
      "type": "function"
    }
  ],
  "bytecode": "0x60806040526040518060400160405280600881526020017f4453746f726167650000000000000000000000000000000000000000000000008152506000908051906020019062000051929190620000f6565b5060006001553480156200006457600080fd5b506040518060400160405280600581526020017f41646d696e000000000000000000000000000000000000000000000000000000815250600460003373ffffffffffffffffffffffffffffffffffffffff1673ffffffffffffffffffffffffffffffffffffffff1681526020019081526020016000209080519060200190620000ef929190620000f6565b50620001a5565b828054600181600116156101000203166002900490600052602060002090601f016020900481019282601f106200013957805160ff19168380011785556200016a565b828001600101855582156200016a579182015b82811115620001695782518255916020019190600101906200014c565b5b5090506200017991906200017d565b5090565b620001a291905b808211156200019e57600081600090555060010162000184565b5090565b90565b61472780620001b56000396000f3fe608060405234801561001057600080fd5b50600436106100f55760003560e01c80639937464211610097578063c5b4200611610066578063c5b42006146102a2578063ec45758b146102be578063f4c714b4146102ee578063f832309b14610325576100f5565b80639937464214610203578063b2bef31414610233578063bbef8ae014610263578063c465f2f01461027f576100f5565b806344276733116100d357806344276733146101525780634b51c30114610182578063607604151461019e57806385885dfc146101d3576100f5565b806306fdde03146100fa57806343051cf9146101185780634395351914610134575b600080fd5b610102610341565b60405161010f9190613ea7565b60405180910390f35b610132600480360361012d919081019061349a565b6103df565b005b61013c610b8b565b604051610149919061404b565b60405180910390f35b61016c6004803603610167919081019061341d565b610b91565b6040516101799190613ec9565b60405180910390f35b61019c60048036036101979190810190613583565b610c72565b005b6101b860048036036101b39190810190613583565b6112bd565b6040516101ca96959493929190614252565b60405180910390f35b6101ed60048036036101e891908101906135ac565b611586565b6040516101fa9190613e71565b60405180910390f35b61021d6004803603610218919081019061341d565b6115f6565b60405161022a9190613ea7565b60405180910390f35b61024d60048036036102489190810190613583565b6116a6565b60405161025a9190613e8c565b60405180910390f35b61027d60048036036102789190810190613583565b611713565b005b610287611d9d565b60405161029996959493929190613de6565b60405180910390f35b6102bc60048036036102b79190810190613583565b612382565b005b6102d860048036036102d39190810190613583565b612c94565b6040516102e59190613e8c565b60405180910390f35b61030860048036036103039190810190613583565b612cac565b60405161031c9897969594939291906143a7565b60405180910390f35b61033f600480360361033a9190810190613446565b612f74565b005b60008054600181600116156101000203166002900480601f0160208091040260200160405190810160405280929190818152602001828054600181600116156101000203166002900480156103d75780601f106103ac576101008083540402835291602001916103d7565b820191906000526020600020905b8154815290600101906020018083116103ba57829003601f168201915b505050505081565b6040518060400160405280600581526020017f41646d696e00000000000000000000000000000000000000000000000000000081525080519060200120600460003373ffffffffffffffffffffffffffffffffffffffff1673ffffffffffffffffffffffffffffffffffffffff1681526020019081526020016000206040516104689190613dcf565b6040518091039020148061050a57506040518060400160405280600481526020017f557365720000000000000000000000000000000000000000000000000000000081525080519060200120600460003373ffffffffffffffffffffffffffffffffffffffff1673ffffffffffffffffffffffffffffffffffffffff1681526020019081526020016000206040516105009190613dcf565b6040518091039020145b610549576040517f08c379a000000000000000000000000000000000000000000000000000000000815260040161054090613fab565b60405180910390fd5b600086511161058d576040517f08c379a000000000000000000000000000000000000000000000000000000000815260040161058490613fcb565b60405180910390fd5b60008451116105d1576040517f08c379a00000000000000000000000000000000000000000000000000000000081526004016105c890613f4b565b60405180910390fd5b6000825111610615576040517f08c379a000000000000000000000000000000000000000000000000000000000815260040161060c9061402b565b60405180910390fd5b6000835111610659576040517f08c379a00000000000000000000000000000000000000000000000000000000081526004016106509061400b565b60405180910390fd5b600073ffffffffffffffffffffffffffffffffffffffff163373ffffffffffffffffffffffffffffffffffffffff1614156106c9576040517f08c379a00000000000000000000000000000000000000000000000000000000081526004016106c090613feb565b60405180910390fd5b6000851161070c576040517f08c379a000000000000000000000000000000000000000000000000000000000815260040161070390613f2b565b60405180910390fd5b60016000815480929190600101919050555060405180610100016040528060015481526020018781526020018681526020018581526020018481526020018381526020014281526020013373ffffffffffffffffffffffffffffffffffffffff168152506002600060015481526020019081526020016000206000820151816000015560208201518160010190805190602001906107ab92919061320a565b506040820151816002015560608201518160030190805190602001906107d292919061320a565b5060808201518160040190805190602001906107ef92919061320a565b5060a082015181600501908051906020019061080c92919061320a565b5060c0820151816006015560e08201518160070160006101000a81548173ffffffffffffffffffffffffffffffffffffffff021916908373ffffffffffffffffffffffffffffffffffffffff160217905550905050806003600060015481526020019081526020016000208190555060056040518060c001604052804281526020013373ffffffffffffffffffffffffffffffffffffffff168152602001600460003373ffffffffffffffffffffffffffffffffffffffff1673ffffffffffffffffffffffffffffffffffffffff1681526020019081526020016000208054600181600116156101000203166002900480601f01602080910402602001604051908101604052809291908181526020018280546001816001161561010002031660029004801561097d5780601f106109525761010080835404028352916020019161097d565b820191906000526020600020905b81548152906001019060200180831161096057829003601f168201915b505050505081526020016040518060400160405280600881526020017f55706c6f61646564000000000000000000000000000000000000000000000000815250815260200185815260200188815250908060018154018082558091505090600182039060005260206000209060060201600090919290919091506000820151816000015560208201518160010160006101000a81548173ffffffffffffffffffffffffffffffffffffffff021916908373ffffffffffffffffffffffffffffffffffffffff1602179055506040820151816002019080519060200190610a6492919061320a565b506060820151816003019080519060200190610a8192919061320a565b506080820151816004019080519060200190610a9e92919061320a565b5060a0820151816005019080519060200190610abb92919061320a565b505050507fdec73178d41eb772f19f928f07d4e4328b91e6b38d8a5a63198db5157e8d838a4233600460003373ffffffffffffffffffffffffffffffffffffffff1673ffffffffffffffffffffffffffffffffffffffff168152602001908152602001600020868a604051610b349594939291906141d7565b60405180910390a17f6e95bbaa37a5fdec42a312e049dea2fe6160ebe659214d3409b4f91f164c2f5260015487878787874233604051610b7b9897969594939291906142cf565b60405180910390a1505050505050565b60015481565b6060600460008373ffffffffffffffffffffffffffffffffffffffff1673ffffffffffffffffffffffffffffffffffffffff1681526020019081526020016000208054600181600116156101000203166002900480601f016020809104026020016040519081016040528092919081815260200182805460018160011615610100020316600290048015610c665780601f10610c3b57610100808354040283529160200191610c66565b820191906000526020600020905b815481529060010190602001808311610c4957829003601f168201915b50505050509050919050565b600081118015610c8457506001548111155b610cc3576040517f08c379a0000000000000000000000000000000000000000000000000000000008152600401610cba90613eeb565b60405180910390fd5b610ccb61328a565b600260008381526020019081526020016000206040518061010001604052908160008201548152602001600182018054600181600116156101000203166002900480601f016020809104026020016040519081016040528092919081815260200182805460018160011615610100020316600290048015610d8d5780601f10610d6257610100808354040283529160200191610d8d565b820191906000526020600020905b815481529060010190602001808311610d7057829003601f168201915b5050505050815260200160028201548152602001600382018054600181600116156101000203166002900480601f016020809104026020016040519081016040528092919081815260200182805460018160011615610100020316600290048015610e395780601f10610e0e57610100808354040283529160200191610e39565b820191906000526020600020905b815481529060010190602001808311610e1c57829003601f168201915b50505050508152602001600482018054600181600116156101000203166002900480601f016020809104026020016040519081016040528092919081815260200182805460018160011615610100020316600290048015610edb5780601f10610eb057610100808354040283529160200191610edb565b820191906000526020600020905b815481529060010190602001808311610ebe57829003601f168201915b50505050508152602001600582018054600181600116156101000203166002900480601f016020809104026020016040519081016040528092919081815260200182805460018160011615610100020316600290048015610f7d5780601f10610f5257610100808354040283529160200191610f7d565b820191906000526020600020905b815481529060010190602001808311610f6057829003601f168201915b50505050508152602001600682015481526020016007820160009054906101000a900473ffffffffffffffffffffffffffffffffffffffff1673ffffffffffffffffffffffffffffffffffffffff1673ffffffffffffffffffffffffffffffffffffffff1681525050905060056040518060c001604052804281526020013373ffffffffffffffffffffffffffffffffffffffff168152602001600460003373ffffffffffffffffffffffffffffffffffffffff1673ffffffffffffffffffffffffffffffffffffffff1681526020019081526020016000208054600181600116156101000203166002900480601f0160208091040260200160405190810160405280929190818152602001828054600181600116156101000203166002900480156110ea5780601f106110bf576101008083540402835291602001916110ea565b820191906000526020600020905b8154815290600101906020018083116110cd57829003601f168201915b505050505081526020016040518060400160405280600a81526020017f446f776e6c6f61646564000000000000000000000000000000000000000000008152508152602001836080015181526020018360200151815250908060018154018082558091505090600182039060005260206000209060060201600090919290919091506000820151816000015560208201518160010160006101000a81548173ffffffffffffffffffffffffffffffffffffffff021916908373ffffffffffffffffffffffffffffffffffffffff16021790555060408201518160020190805190602001906111d992919061320a565b5060608201518160030190805190602001906111f692919061320a565b50608082015181600401908051906020019061121392919061320a565b5060a082015181600501908051906020019061123092919061320a565b505050507fdec73178d41eb772f19f928f07d4e4328b91e6b38d8a5a63198db5157e8d838a4233600460003373ffffffffffffffffffffffffffffffffffffffff1673ffffffffffffffffffffffffffffffffffffffff168152602001908152602001600020846080015185602001516040516112b19594939291906140e1565b60405180910390a15050565b600581815481106112ca57fe5b90600052602060002090600602016000915090508060000154908060010160009054906101000a900473ffffffffffffffffffffffffffffffffffffffff1690806002018054600181600116156101000203166002900480601f0160208091040260200160405190810160405280929190818152602001828054600181600116156101000203166002900480156113a25780601f10611377576101008083540402835291602001916113a2565b820191906000526020600020905b81548152906001019060200180831161138557829003601f168201915b505050505090806003018054600181600116156101000203166002900480601f0160208091040260200160405190810160405280929190818152602001828054600181600116156101000203166002900480156114405780601f1061141557610100808354040283529160200191611440565b820191906000526020600020905b81548152906001019060200180831161142357829003601f168201915b505050505090806004018054600181600116156101000203166002900480601f0160208091040260200160405190810160405280929190818152602001828054600181600116156101000203166002900480156114de5780601f106114b3576101008083540402835291602001916114de565b820191906000526020600020905b8154815290600101906020018083116114c157829003601f168201915b505050505090806005018054600181600116156101000203166002900480601f01602080910402602001604051908101604052809291908181526020018280546001816001161561010002031660029004801561157c5780601f106115515761010080835404028352916020019161157c565b820191906000526020600020905b81548152906001019060200180831161155f57829003601f168201915b5050505050905086565b6000808311801561159957506001548311155b6115d8576040517f08c379a00000000000000000000000000000000000000000000000000000000081526004016115cf90613eeb565b60405180910390fd5b81600360008581526020019081526020016000205414905092915050565b60046020528060005260406000206000915090508054600181600116156101000203166002900480601f01602080910402602001604051908101604052809291908181526020018280546001816001161561010002031660029004801561169e5780601f106116735761010080835404028352916020019161169e565b820191906000526020600020905b81548152906001019060200180831161168157829003601f168201915b505050505081565b600080821180156116b957506001548211155b6116f8576040517f08c379a00000000000000000000000000000000000000000000000000000000081526004016116ef90613eeb565b60405180910390fd5b60036000838152602001908152602001600020549050919050565b60008111801561172557506001548111155b611764576040517f08c379a000000000000000000000000000000000000000000000000000000000815260040161175b90613eeb565b60405180910390fd5b61176c61328a565b600260008381526020019081526020016000206040518061010001604052908160008201548152602001600182018054600181600116156101000203166002900480601f01602080910402602001604051908101604052809291908181526020018280546001816001161561010002031660029004801561182e5780601f106118035761010080835404028352916020019161182e565b820191906000526020600020905b81548152906001019060200180831161181157829003601f168201915b5050505050815260200160028201548152602001600382018054600181600116156101000203166002900480601f0160208091040260200160405190810160405280929190818152602001828054600181600116156101000203166002900480156118da5780601f106118af576101008083540402835291602001916118da565b820191906000526020600020905b8154815290600101906020018083116118bd57829003601f168201915b50505050508152602001600482018054600181600116156101000203166002900480601f01602080910402602001604051908101604052809291908181526020018280546001816001161561010002031660029004801561197c5780601f106119515761010080835404028352916020019161197c565b820191906000526020600020905b81548152906001019060200180831161195f57829003601f168201915b50505050508152602001600582018054600181600116156101000203166002900480601f016020809104026020016040519081016040528092919081815260200182805460018160011615610100020316600290048015611a1e5780601f106119f357610100808354040283529160200191611a1e565b820191906000526020600020905b815481529060010190602001808311611a0157829003601f168201915b50505050508152602001600682015481526020016007820160009054906101000a900473ffffffffffffffffffffffffffffffffffffffff1673ffffffffffffffffffffffffffffffffffffffff1673ffffffffffffffffffffffffffffffffffffffff1681525050905060056040518060c001604052804281526020013373ffffffffffffffffffffffffffffffffffffffff168152602001600460003373ffffffffffffffffffffffffffffffffffffffff1673ffffffffffffffffffffffffffffffffffffffff1681526020019081526020016000208054600181600116156101000203166002900480601f016020809104026020016040519081016040528092919081815260200182805460018160011615610100020316600290048015611b8b5780601f10611b6057610100808354040283529160200191611b8b565b820191906000526020600020905b815481529060010190602001808311611b6e57829003601f168201915b505050505081526020016040518060400160405280600681526020017f56696577656400000000000000000000000000000000000000000000000000008152508152602001836080015181526020018360200151815250908060018154018082558091505090600182039060005260206000209060060201600090919290919091506000820151816000015560208201518160010160006101000a81548173ffffffffffffffffffffffffffffffffffffffff021916908373ffffffffffffffffffffffffffffffffffffffff1602179055506040820151816002019080519060200190611c7a92919061320a565b506060820151816003019080519060200190611c9792919061320a565b506080820151816004019080519060200190611cb492919061320a565b5060a0820151816005019080519060200190611cd192919061320a565b505050507fdec73178d41eb772f19f928f07d4e4328b91e6b38d8a5a63198db5157e8d838a4233600460003373ffffffffffffffffffffffffffffffffffffffff1673ffffffffffffffffffffffffffffffffffffffff16815260200190815260200160002084608001518560200151604051611d5295949392919061415c565b60405180910390a17f6ef4a1d4b263669ad4742dfb291270609cb868d019828a6064f259c1e065a59782826080015133604051611d9193929190614369565b60405180910390a15050565b6060806060806060806040518060400160405280600581526020017f41646d696e00000000000000000000000000000000000000000000000000000081525080519060200120600460003373ffffffffffffffffffffffffffffffffffffffff1673ffffffffffffffffffffffffffffffffffffffff168152602001908152602001600020604051611e2f9190613dcf565b604051809103902014611e77576040517f08c379a0000000000000000000000000000000000000000000000000000000008152600401611e6e90613f8b565b60405180910390fd5b60006005805490509050606081604051908082528060200260200182016040528015611eb25781602001602082028038833980820191505090505b509050606082604051908082528060200260200182016040528015611ee65781602001602082028038833980820191505090505b509050606083604051908082528060200260200182016040528015611f1f57816020015b6060815260200190600190039081611f0a5790505b509050606084604051908082528060200260200182016040528015611f5857816020015b6060815260200190600190039081611f435790505b509050606085604051908082528060200260200182016040528015611f9157816020015b6060815260200190600190039081611f7c5790505b509050606086604051908082528060200260200182016040528015611fca57816020015b6060815260200190600190039081611fb55790505b50905060008090505b8781101561236057600060058281548110611fea57fe5b90600052602060002090600602019050806000015488838151811061200b57fe5b6020026020010181815250508060010160009054906101000a900473ffffffffffffffffffffffffffffffffffffffff1687838151811061204857fe5b602002602001019073ffffffffffffffffffffffffffffffffffffffff16908173ffffffffffffffffffffffffffffffffffffffff1681525050806002018054600181600116156101000203166002900480601f01602080910402602001604051908101604052809291908181526020018280546001816001161561010002031660029004801561211a5780601f106120ef5761010080835404028352916020019161211a565b820191906000526020600020905b8154815290600101906020018083116120fd57829003601f168201915b505050505086838151811061212b57fe5b6020026020010181905250806003018054600181600116156101000203166002900480601f0160208091040260200160405190810160405280929190818152602001828054600181600116156101000203166002900480156121ce5780601f106121a3576101008083540402835291602001916121ce565b820191906000526020600020905b8154815290600101906020018083116121b157829003601f168201915b50505050508583815181106121df57fe5b6020026020010181905250806004018054600181600116156101000203166002900480601f0160208091040260200160405190810160405280929190818152602001828054600181600116156101000203166002900480156122825780601f1061225757610100808354040283529160200191612282565b820191906000526020600020905b81548152906001019060200180831161226557829003601f168201915b505050505084838151811061229357fe5b6020026020010181905250806005018054600181600116156101000203166002900480601f0160208091040260200160405190810160405280929190818152602001828054600181600116156101000203166002900480156123365780601f1061230b57610100808354040283529160200191612336565b820191906000526020600020905b81548152906001019060200180831161231957829003601f168201915b505050505083838151811061234757fe5b6020026020010181905250508080600101915050611fd3565b508585858585859c509c509c509c509c509c5050505050505050909192939495565b806002600082815260200190815260200160002060070160009054906101000a900473ffffffffffffffffffffffffffffffffffffffff1673ffffffffffffffffffffffffffffffffffffffff163373ffffffffffffffffffffffffffffffffffffffff16148061248157506040518060400160405280600581526020017f41646d696e00000000000000000000000000000000000000000000000000000081525080519060200120600460003373ffffffffffffffffffffffffffffffffffffffff1673ffffffffffffffffffffffffffffffffffffffff1681526020019081526020016000206040516124779190613dcf565b6040518091039020145b6124c0576040517f08c379a00000000000000000000000000000000000000000000000000000000081526004016124b790613f6b565b60405180910390fd5b6000821180156124d257506001548211155b612511576040517f08c379a000000000000000000000000000000000000000000000000000000000815260040161250890613eeb565b60405180910390fd5b61251961328a565b600260008481526020019081526020016000206040518061010001604052908160008201548152602001600182018054600181600116156101000203166002900480601f0160208091040260200160405190810160405280929190818152602001828054600181600116156101000203166002900480156125db5780601f106125b0576101008083540402835291602001916125db565b820191906000526020600020905b8154815290600101906020018083116125be57829003601f168201915b5050505050815260200160028201548152602001600382018054600181600116156101000203166002900480601f0160208091040260200160405190810160405280929190818152602001828054600181600116156101000203166002900480156126875780601f1061265c57610100808354040283529160200191612687565b820191906000526020600020905b81548152906001019060200180831161266a57829003601f168201915b50505050508152602001600482018054600181600116156101000203166002900480601f0160208091040260200160405190810160405280929190818152602001828054600181600116156101000203166002900480156127295780601f106126fe57610100808354040283529160200191612729565b820191906000526020600020905b81548152906001019060200180831161270c57829003601f168201915b50505050508152602001600582018054600181600116156101000203166002900480601f0160208091040260200160405190810160405280929190818152602001828054600181600116156101000203166002900480156127cb5780601f106127a0576101008083540402835291602001916127cb565b820191906000526020600020905b8154815290600101906020018083116127ae57829003601f168201915b50505050508152602001600682015481526020016007820160009054906101000a900473ffffffffffffffffffffffffffffffffffffffff1673ffffffffffffffffffffffffffffffffffffffff1673ffffffffffffffffffffffffffffffffffffffff168152505090506040518060200160405280600081525060026000858152602001908152602001600020600101908051906020019061286f9291906132e5565b506040518060400160405280600c81526020017f44656c657465642046696c6500000000000000000000000000000000000000008152506002600085815260200190815260200160002060040190805190602001906128cf9291906132e5565b506040518060400160405280601b81526020017f546869732066696c6520686173206265656e2064656c657465642e000000000081525060026000858152602001908152602001600020600501908051906020019061292f9291906132e5565b506000600260008581526020019081526020016000206002018190555060006002600085815260200190815260200160002060060181905550600360008481526020019081526020016000206000905560056040518060c001604052804281526020013373ffffffffffffffffffffffffffffffffffffffff168152602001600460003373ffffffffffffffffffffffffffffffffffffffff1673ffffffffffffffffffffffffffffffffffffffff1681526020019081526020016000208054600181600116156101000203166002900480601f016020809104026020016040519081016040528092919081815260200182805460018160011615610100020316600290048015612a815780601f10612a5657610100808354040283529160200191612a81565b820191906000526020600020905b815481529060010190602001808311612a6457829003601f168201915b505050505081526020016040518060400160405280600781526020017f44656c65746564000000000000000000000000000000000000000000000000008152508152602001836080015181526020018360200151815250908060018154018082558091505090600182039060005260206000209060060201600090919290919091506000820151816000015560208201518160010160006101000a81548173ffffffffffffffffffffffffffffffffffffffff021916908373ffffffffffffffffffffffffffffffffffffffff1602179055506040820151816002019080519060200190612b7092919061320a565b506060820151816003019080519060200190612b8d92919061320a565b506080820151816004019080519060200190612baa92919061320a565b5060a0820151816005019080519060200190612bc792919061320a565b505050507fdec73178d41eb772f19f928f07d4e4328b91e6b38d8a5a63198db5157e8d838a4233600460003373ffffffffffffffffffffffffffffffffffffffff1673ffffffffffffffffffffffffffffffffffffffff16815260200190815260200160002084608001518560200151604051612c48959493929190614066565b60405180910390a17f5aee9b7eab54210a7a72a11a64f1252b2e1331b721f1ab1d9ec9bbf78c1dc54183826080015133604051612c8793929190614369565b60405180910390a1505050565b60036020528060005260406000206000915090505481565b6002602052806000526040600020600091509050806000015490806001018054600181600116156101000203166002900480601f016020809104026020016040519081016040528092919081815260200182805460018160011615610100020316600290048015612d5e5780601f10612d3357610100808354040283529160200191612d5e565b820191906000526020600020905b815481529060010190602001808311612d4157829003601f168201915b505050505090806002015490806003018054600181600116156101000203166002900480601f016020809104026020016040519081016040528092919081815260200182805460018160011615610100020316600290048015612e025780601f10612dd757610100808354040283529160200191612e02565b820191906000526020600020905b815481529060010190602001808311612de557829003601f168201915b505050505090806004018054600181600116156101000203166002900480601f016020809104026020016040519081016040528092919081815260200182805460018160011615610100020316600290048015612ea05780601f10612e7557610100808354040283529160200191612ea0565b820191906000526020600020905b815481529060010190602001808311612e8357829003601f168201915b505050505090806005018054600181600116156101000203166002900480601f016020809104026020016040519081016040528092919081815260200182805460018160011615610100020316600290048015612f3e5780601f10612f1357610100808354040283529160200191612f3e565b820191906000526020600020905b815481529060010190602001808311612f2157829003601f168201915b5050505050908060060154908060070160009054906101000a900473ffffffffffffffffffffffffffffffffffffffff16905088565b6040518060400160405280600581526020017f41646d696e00000000000000000000000000000000000000000000000000000081525080519060200120600460003373ffffffffffffffffffffffffffffffffffffffff1673ffffffffffffffffffffffffffffffffffffffff168152602001908152602001600020604051612ffd9190613dcf565b604051809103902014613045576040517f08c379a000000000000000000000000000000000000000000000000000000000815260040161303c90613f8b565b60405180910390fd5b6040518060400160405280600581526020017f41646d696e00000000000000000000000000000000000000000000000000000081525080519060200120818051906020012014806130d857506040518060400160405280600481526020017f5573657200000000000000000000000000000000000000000000000000000000815250805190602001208180519060200120145b8061312557506040518060400160405280600681526020017f5669657765720000000000000000000000000000000000000000000000000000815250805190602001208180519060200120145b613164576040517f08c379a000000000000000000000000000000000000000000000000000000000815260040161315b90613f0b565b60405180910390fd5b80600460008473ffffffffffffffffffffffffffffffffffffffff1673ffffffffffffffffffffffffffffffffffffffff16815260200190815260200160002090805190602001906131b79291906132e5565b508173ffffffffffffffffffffffffffffffffffffffff167f3565795c2fb8842c21347d277937778bbcfe788b5b4f790fc5e408786cbe9c90826040516131fe9190613ec9565b60405180910390a25050565b828054600181600116156101000203166002900490600052602060002090601f016020900481019282601f1061324b57805160ff1916838001178555613279565b82800160010185558215613279579182015b8281111561327857825182559160200191906001019061325d565b5b5090506132869190613365565b5090565b60405180610100016040528060008152602001606081526020016000815260200160608152602001606081526020016060815260200160008152602001600073ffffffffffffffffffffffffffffffffffffffff1681525090565b828054600181600116156101000203166002900490600052602060002090601f016020900481019282601f1061332657805160ff1916838001178555613354565b82800160010185558215613354579182015b82811115613353578251825591602001919060010190613338565b5b5090506133619190613365565b5090565b61338791905b8082111561338357600081600090555060010161336b565b5090565b90565b6000813590506133998161469f565b92915050565b6000813590506133ae816146b6565b92915050565b600082601f8301126133c557600080fd5b81356133d86133d38261446e565b614441565b915080825260208301602083018583830111156133f457600080fd5b6133ff83828461464c565b50505092915050565b600081359050613417816146cd565b92915050565b60006020828403121561342f57600080fd5b600061343d8482850161338a565b91505092915050565b6000806040838503121561345957600080fd5b60006134678582860161338a565b925050602083013567ffffffffffffffff81111561348457600080fd5b613490858286016133b4565b9150509250929050565b60008060008060008060c087890312156134b357600080fd5b600087013567ffffffffffffffff8111156134cd57600080fd5b6134d989828a016133b4565b96505060206134ea89828a01613408565b955050604087013567ffffffffffffffff81111561350757600080fd5b61351389828a016133b4565b945050606087013567ffffffffffffffff81111561353057600080fd5b61353c89828a016133b4565b935050608087013567ffffffffffffffff81111561355957600080fd5b61356589828a016133b4565b92505060a061357689828a0161339f565b9150509295509295509295565b60006020828403121561359557600080fd5b60006135a384828501613408565b91505092915050565b600080604083850312156135bf57600080fd5b60006135cd85828601613408565b92505060206135de8582860161339f565b9150509250929050565b60006135f4838361364a565b60208301905092915050565b600061360c838361387e565b905092915050565b60006136208383613db1565b60208301905092915050565b61363581614616565b82525050565b613644816145c4565b82525050565b613653816145b2565b82525050565b613662816145b2565b82525050565b6000613673826144f4565b61367d8185614552565b93506136888361449a565b8060005b838110156136b95781516136a088826135e8565b97506136ab8361452b565b92505060018101905061368c565b5085935050505092915050565b60006136d1826144ff565b6136db8185614563565b9350836020820285016136ed856144aa565b8060005b85811015613729578484038952815161370a8582613600565b945061371583614538565b925060208a019950506001810190506136f1565b50829750879550505050505092915050565b60006137468261450a565b6137508185614574565b935061375b836144ba565b8060005b8381101561378c5781516137738882613614565b975061377e83614545565b92505060018101905061375f565b5085935050505092915050565b6137a2816145d6565b82525050565b6137b1816145e2565b82525050565b6000815460018116600081146137d457600181146137f95761383d565b607f60028304166137e58187614585565b955060ff198316865280860193505061383d565b600282046138078187614585565b9550613812856144ca565b60005b8281101561383457815481890152600182019150602081019050613815565b82880195505050505b505092915050565b600061385082614520565b61385a81856145a1565b935061386a81856020860161465b565b6138738161468e565b840191505092915050565b600061388982614515565b6138938185614590565b93506138a381856020860161465b565b6138ac8161468e565b840191505092915050565b60006138c282614515565b6138cc81856145a1565b93506138dc81856020860161465b565b6138e58161468e565b840191505092915050565b60008154600181166000811461390d576001811461393357613977565b607f600283041661391e81876145a1565b955060ff198316865260208601935050613977565b6002820461394181876145a1565b955061394c856144df565b60005b8281101561396e5781548189015260018201915060208101905061394f565b80880195505050505b505092915050565b600061398c6007836145a1565b91507f44656c65746564000000000000000000000000000000000000000000000000006000830152602082019050919050565b60006139cc600f836145a1565b91507f496e76616c69642066696c6520494400000000000000000000000000000000006000830152602082019050919050565b6000613a0c602e836145a1565b91507f496e76616c696420526f6c653a20557365202741646d696e272c20275573657260008301527f272c206f722027566965776572270000000000000000000000000000000000006020830152604082019050919050565b6000613a726011836145a1565b91507f496e76616c69642066696c652073697a650000000000000000000000000000006000830152602082019050919050565b6000613ab2600a836145a1565b91507f446f776e6c6f61646564000000000000000000000000000000000000000000006000830152602082019050919050565b6000613af26006836145a1565b91507f56696577656400000000000000000000000000000000000000000000000000006000830152602082019050919050565b6000613b326011836145a1565b91507f496e76616c69642066696c6520747970650000000000000000000000000000006000830152602082019050919050565b6000613b726030836145a1565b91507f4163636573732044656e6965643a204f6e6c792075706c6f61646572206f722060008301527f41646d696e2063616e2064656c657465000000000000000000000000000000006020830152604082019050919050565b6000613bd86008836145a1565b91507f55706c6f616465640000000000000000000000000000000000000000000000006000830152602082019050919050565b6000613c18601b836145a1565b91507f4163636573732044656e6965643a204e6f7420616e2041646d696e00000000006000830152602082019050919050565b6000613c586022836145a1565b91507f4163636573732044656e6965643a204e6f7420612055736572206f722041646d60008301527f696e0000000000000000000000000000000000000000000000000000000000006020830152604082019050919050565b6000613cbe6011836145a1565b91507f496e76616c69642066696c6520686173680000000000000000000000000000006000830152602082019050919050565b6000613cfe6018836145a1565b91507f496e76616c69642075706c6f61646572206164647265737300000000000000006000830152602082019050919050565b6000613d3e6011836145a1565b91507f496e76616c69642066696c65206e616d650000000000000000000000000000006000830152602082019050919050565b6000613d7e6018836145a1565b91507f496e76616c69642066696c65206465736372697074696f6e00000000000000006000830152602082019050919050565b613dba8161460c565b82525050565b613dc98161460c565b82525050565b6000613ddb82846137b7565b915081905092915050565b600060c0820190508181036000830152613e00818961373b565b90508181036020830152613e148188613668565b90508181036040830152613e2881876136c6565b90508181036060830152613e3c81866136c6565b90508181036080830152613e5081856136c6565b905081810360a0830152613e6481846136c6565b9050979650505050505050565b6000602082019050613e866000830184613799565b92915050565b6000602082019050613ea160008301846137a8565b92915050565b60006020820190508181036000830152613ec181846138b7565b905092915050565b60006020820190508181036000830152613ee38184613845565b905092915050565b60006020820190508181036000830152613f04816139bf565b9050919050565b60006020820190508181036000830152613f24816139ff565b9050919050565b60006020820190508181036000830152613f4481613a65565b9050919050565b60006020820190508181036000830152613f6481613b25565b9050919050565b60006020820190508181036000830152613f8481613b65565b9050919050565b60006020820190508181036000830152613fa481613c0b565b9050919050565b60006020820190508181036000830152613fc481613c4b565b9050919050565b60006020820190508181036000830152613fe481613cb1565b9050919050565b6000602082019050818103600083015261400481613cf1565b9050919050565b6000602082019050818103600083015261402481613d31565b9050919050565b6000602082019050818103600083015261404481613d71565b9050919050565b60006020820190506140606000830184613dc0565b92915050565b600060c08201905061407b6000830188613dc0565b614088602083018761362c565b818103604083015261409a81866138f0565b905081810360608301526140ad8161397f565b905081810360808301526140c181856138b7565b905081810360a08301526140d581846138b7565b90509695505050505050565b600060c0820190506140f66000830188613dc0565b614103602083018761362c565b818103604083015261411581866138f0565b9050818103606083015261412881613aa5565b9050818103608083015261413c81856138b7565b905081810360a083015261415081846138b7565b90509695505050505050565b600060c0820190506141716000830188613dc0565b61417e602083018761362c565b818103604083015261419081866138f0565b905081810360608301526141a381613ae5565b905081810360808301526141b781856138b7565b905081810360a08301526141cb81846138b7565b90509695505050505050565b600060c0820190506141ec6000830188613dc0565b6141f9602083018761362c565b818103604083015261420b81866138f0565b9050818103606083015261421e81613bcb565b905081810360808301526142328185613845565b905081810360a08301526142468184613845565b90509695505050505050565b600060c0820190506142676000830189613dc0565b6142746020830188613659565b818103604083015261428681876138b7565b9050818103606083015261429a81866138b7565b905081810360808301526142ae81856138b7565b905081810360a08301526142c281846138b7565b9050979650505050505050565b6000610100820190506142e5600083018b613dc0565b81810360208301526142f7818a613845565b90506143066040830189613dc0565b81810360608301526143188188613845565b9050818103608083015261432c8187613845565b905081810360a08301526143408186613845565b905061434f60c0830185613dc0565b61435c60e083018461363b565b9998505050505050505050565b600060608201905061437e6000830186613dc0565b818103602083015261439081856138b7565b905061439f604083018461362c565b949350505050565b6000610100820190506143bd600083018b613dc0565b81810360208301526143cf818a6138b7565b90506143de6040830189613dc0565b81810360608301526143f081886138b7565b9050818103608083015261440481876138b7565b905081810360a083015261441881866138b7565b905061442760c0830185613dc0565b61443460e083018461363b565b9998505050505050505050565b6000604051905081810181811067ffffffffffffffff8211171561446457600080fd5b8060405250919050565b600067ffffffffffffffff82111561448557600080fd5b601f19601f8301169050602081019050919050565b6000819050602082019050919050565b6000819050602082019050919050565b6000819050602082019050919050565b60008190508160005260206000209050919050565b60008190508160005260206000209050919050565b600081519050919050565b600081519050919050565b600081519050919050565b600081519050919050565b600081519050919050565b6000602082019050919050565b6000602082019050919050565b6000602082019050919050565b600082825260208201905092915050565b600082825260208201905092915050565b600082825260208201905092915050565b600081905092915050565b600082825260208201905092915050565b600082825260208201905092915050565b60006145bd826145ec565b9050919050565b60006145cf826145ec565b9050919050565b60008115159050919050565b6000819050919050565b600073ffffffffffffffffffffffffffffffffffffffff82169050919050565b6000819050919050565b600061462182614628565b9050919050565b60006146338261463a565b9050919050565b6000614645826145ec565b9050919050565b82818337600083830152505050565b60005b8381101561467957808201518184015260208101905061465e565b83811115614688576000848401525b50505050565b6000601f19601f8301169050919050565b6146a8816145b2565b81146146b357600080fd5b50565b6146bf816145e2565b81146146ca57600080fd5b50565b6146d68161460c565b81146146e157600080fd5b5056fea365627a7a72315820e4d293b6a11c93b5bc6d7b550e23b1082490b837e7d9f36e669320db20d1ad7f6c6578706572696d656e74616cf564736f6c63430005100040",
  "source": "pragma solidity ^0.5.0;\r\npragma experimental ABIEncoderV2;\r\n\r\n\r\ncontract DStorage {\r\n    string public name = \"DStorage\";\r\n    uint public fileCount = 0;\r\n    mapping(uint => File) public files;\r\n    mapping(uint => bytes32) public fileIntegrityHashes;\r\n    mapping(address => string) public roles; // Role-Based Access Control\r\n\r\n    struct File {\r\n        uint fileId;\r\n        string fileHash;\r\n        uint fileSize;\r\n        string fileType;\r\n        string fileName;\r\n        string fileDescription;\r\n        uint uploadTime;\r\n        address payable uploader;\r\n    }\r\n\r\n    //  Audit Log Structure\r\n    struct AuditLog {\r\n        uint timestamp;\r\n        address user;\r\n        string userRole;\r\n        string action;\r\n        string fileName;\r\n        string fileHash;\r\n    }\r\n\r\n    AuditLog[] public auditLogs; // Array to store audit logs\r\n\r\n    //  Events\r\n    event FileUploaded(uint fileId, string fileHash, uint fileSize, string fileType, string fileName, string fileDescription, uint uploadTime, address payable uploader);\r\n    event FileDeleted(uint fileId, string fileName, address deletedBy);\r\n    event FileViewed(uint fileId, string fileName, address viewedBy);\r\n    event RoleAssigned(address indexed user, string role);\r\n    event ActionLogged(uint timestamp, address user, string userRole, string action, string fileName, string fileHash); // Audit Log Event\r\n\r\n    constructor() public {\r\n        roles[msg.sender] = \"Admin\"; // Contract deployer is Admin\r\n    }\r\n\r\n    //  Modifiers\r\n    modifier onlyAdmin() {\r\n        require(keccak256(bytes(roles[msg.sender])) == keccak256(bytes(\"Admin\")), \"Access Denied: Not an Admin\");\r\n        _;\r\n    }\r\n\r\n    modifier onlyUserOrAdmin() {\r\n        require(\r\n            keccak256(bytes(roles[msg.sender])) == keccak256(bytes(\"Admin\")) || \r\n            keccak256(bytes(roles[msg.sender])) == keccak256(bytes(\"User\")), \r\n            \"Access Denied: Not a User or Admin\"\r\n        );\r\n        _;\r\n    }\r\n\r\n    modifier onlyUploaderOrAdmin(uint _fileId) {\r\n        require(\r\n            msg.sender == files[_fileId].uploader || keccak256(bytes(roles[msg.sender])) == keccak256(bytes(\"Admin\")),\r\n            \"Access Denied: Only uploader or Admin can delete\"\r\n        );\r\n        _;\r\n    }\r\n\r\n    //  Assign Roles\r\n    function setRole(address _user, string memory _role) public onlyAdmin {\r\n        require(\r\n            keccak256(bytes(_role)) == keccak256(bytes(\"Admin\")) ||\r\n            keccak256(bytes(_role)) == keccak256(bytes(\"User\")) ||\r\n            keccak256(bytes(_role)) == keccak256(bytes(\"Viewer\")), \r\n            \"Invalid Role: Use 'Admin', 'User', or 'Viewer'\"\r\n        );\r\n        roles[_user] = _role;\r\n        emit RoleAssigned(_user, _role);\r\n    }\r\n\r\n    function getRole(address _user) public view returns (string memory) {\r\n        return roles[_user];\r\n    }\r\n\r\n    //  Upload File (Logs Upload Action)\r\n    function uploadFile(string memory _fileHash, uint _fileSize, string memory _fileType, string memory _fileName, string memory _fileDescription, bytes32 _integrityHash) public onlyUserOrAdmin {\r\n        require(bytes(_fileHash).length > 0, \"Invalid file hash\");\r\n        require(bytes(_fileType).length > 0, \"Invalid file type\");\r\n        require(bytes(_fileDescription).length > 0, \"Invalid file description\");\r\n        require(bytes(_fileName).length > 0, \"Invalid file name\");\r\n        require(msg.sender != address(0), \"Invalid uploader address\");\r\n        require(_fileSize > 0, \"Invalid file size\");\r\n\r\n        fileCount++;\r\n        files[fileCount] = File(fileCount, _fileHash, _fileSize, _fileType, _fileName, _fileDescription, block.timestamp, msg.sender);\r\n        fileIntegrityHashes[fileCount] = _integrityHash;\r\n\r\n        //  Log Upload Action\r\n        auditLogs.push(AuditLog(block.timestamp, msg.sender, roles[msg.sender], \"Uploaded\", _fileName, _fileHash));\r\n        emit ActionLogged(block.timestamp, msg.sender, roles[msg.sender], \"Uploaded\", _fileName, _fileHash);\r\n\r\n        emit FileUploaded(fileCount, _fileHash, _fileSize, _fileType, _fileName, _fileDescription, block.timestamp, msg.sender);\r\n    }\r\n\r\n    //  View File (Logs View Action)\r\n    function viewFile(uint _fileId) public {\r\n        require(_fileId > 0 && _fileId <= fileCount, \"Invalid file ID\");\r\n\r\n        File memory file = files[_fileId];\r\n        \r\n        //  Log View Action\r\n        auditLogs.push(AuditLog(block.timestamp, msg.sender, roles[msg.sender], \"Viewed\", file.fileName, file.fileHash));\r\n        emit ActionLogged(block.timestamp, msg.sender, roles[msg.sender], \"Viewed\", file.fileName, file.fileHash);\r\n\r\n        emit FileViewed(_fileId, file.fileName, msg.sender);\r\n    \r\n    }\r\n\r\n     //  Record Download (NEW)\r\n    function recordDownload(uint _fileId) public {\r\n        require(_fileId > 0 && _fileId <= fileCount, \"Invalid file ID\");\r\n        File memory file = files[_fileId];\r\n\r\n        auditLogs.push(AuditLog(block.timestamp, msg.sender, roles[msg.sender], \"Downloaded\", file.fileName, file.fileHash));\r\n        emit ActionLogged(block.timestamp, msg.sender, roles[msg.sender], \"Downloaded\", file.fileName, file.fileHash);\r\n    }\r\n\r\n    //  Get File Integrity Hash\r\n    function getFileIntegrityHash(uint _fileId) public view returns (bytes32) {\r\n        require(_fileId > 0 && _fileId <= fileCount, \"Invalid file ID\");\r\n        return fileIntegrityHashes[_fileId];\r\n    }\r\n\r\n    //  Verify File Integrity\r\n    function verifyFileIntegrity(uint _fileId, bytes32 _computedHash) public view returns (bool) {\r\n        require(_fileId > 0 && _fileId <= fileCount, \"Invalid file ID\");\r\n        return fileIntegrityHashes[_fileId] == _computedHash;\r\n    }\r\n\r\n    //  Delete File (Logs Delete and Unauthorized Delete Attempt)\r\n    function deleteFile(uint _fileId) public onlyUploaderOrAdmin(_fileId) {\r\n        require(_fileId > 0 && _fileId <= fileCount, \"Invalid file ID\");\r\n\r\n        File memory file = files[_fileId];\r\n\r\n        files[_fileId].fileHash = \"\";\r\n        files[_fileId].fileName = \"Deleted File\";\r\n        files[_fileId].fileDescription = \"This file has been deleted.\";\r\n        files[_fileId].fileSize = 0;\r\n        files[_fileId].uploadTime = 0;\r\n\r\n        delete fileIntegrityHashes[_fileId]; \r\n        \r\n        //  Log Delete Action\r\n        auditLogs.push(AuditLog(block.timestamp, msg.sender, roles[msg.sender], \"Deleted\", file.fileName, file.fileHash));\r\n        emit ActionLogged(block.timestamp, msg.sender, roles[msg.sender], \"Deleted\", file.fileName, file.fileHash);\r\n\r\n        emit FileDeleted(_fileId, file.fileName, msg.sender);\r\n    }\r\n\r\n    \r\n\r\n\r\n    //  Get Audit Logs (Only Admin Can View)\r\n function getAuditLogs() public view onlyAdmin returns (\r\n    uint[] memory,\r\n    address[] memory,\r\n    string[] memory,\r\n    string[] memory,\r\n    string[] memory,\r\n    string[] memory\r\n) {\r\n    uint len = auditLogs.length;\r\n    uint[] memory timestamps = new uint[](len);\r\n    address[] memory users = new address[](len);\r\n    string[] memory rolesList = new string[](len);\r\n    string[] memory actions = new string[](len);\r\n    string[] memory fileNames = new string[](len);\r\n    string[] memory fileHashes = new string[](len);\r\n\r\n    for (uint i = 0; i < len; i++) {\r\n        AuditLog storage log = auditLogs[i];\r\n        timestamps[i] = log.timestamp;\r\n        users[i] = log.user;\r\n        rolesList[i] = log.userRole;\r\n        actions[i] = log.action;\r\n        fileNames[i] = log.fileName;\r\n        fileHashes[i] = log.fileHash;\r\n    }\r\n\r\n    return (timestamps, users, rolesList, actions, fileNames, fileHashes);\r\n}\r\n\r\n\r\n}\r\n",
  "sourcePath": "G:\\sem 2\\mini project -- progress\\Day -05\\mini project\\Log_store\\src\\contracts\\DStorage.sol",
  "compiler": {
    "name": "solc",
    "version": "0.5.16+commit.9c3226ce.Emscripten.clang"
  },
  "schemaVersion": "3.4.16",
  "updatedAt": "2025-04-05T12:55:58.200Z",
  "networkType": "ethereum",
  "devdoc": {
    "methods": {}
  },
  "userdoc": {
    "methods": {}
  }
}